{
  "contractName": "Items",
  "abi": [
    {
      "inputs": [
        {
          "internalType": "contract ItemManager",
          "name": "_parentContract",
          "type": "address"
        },
        {
          "internalType": "uint256",
          "name": "_index",
          "type": "uint256"
        },
        {
          "internalType": "uint256",
          "name": "_price",
          "type": "uint256"
        }
      ],
      "stateMutability": "nonpayable",
      "type": "constructor"
    },
    {
      "inputs": [],
      "name": "parentContract",
      "outputs": [
        {
          "internalType": "contract ItemManager",
          "name": "",
          "type": "address"
        }
      ],
      "stateMutability": "view",
      "type": "function"
    },
    {
      "inputs": [],
      "name": "success",
      "outputs": [
        {
          "internalType": "bool",
          "name": "",
          "type": "bool"
        }
      ],
      "stateMutability": "view",
      "type": "function"
    },
    {
      "inputs": [],
      "name": "fallback",
      "outputs": [],
      "stateMutability": "payable",
      "type": "function"
    }
  ],
  "bytecode": "0x608060405234801561001057600080fd5b5060405161031f38038061031f8339818101604052606081101561003357600080fd5b5080516020820151604090920151600280546001600160a01b0390931661010002610100600160a81b03199093169290921790915560009190915560015561029f806100806000396000f3fe6080604052600436106100345760003560e01c80630b93381b14610039578063230b9da314610062578063552079dc14610093575b600080fd5b34801561004557600080fd5b5061004e61009d565b604080519115158252519081900360200190f35b34801561006e57600080fd5b506100776100a6565b604080516001600160a01b039092168252519081900360200190f35b61009b6100ba565b005b60025460ff1681565b60025461010090046001600160a01b031681565b34600154146100fa5760405162461bcd60e51b81526004018080602001828103825260238152602001806102476023913960400191505060405180910390fd5b6002546000546040805160248082019390935281518082039093018352604401815260208201805163800fb83f60e01b6001600160e01b03909116178152905182516101009094046001600160a01b03169334939282918083835b602083106101745780518252601f199092019160209182019101610155565b6001836020036101000a03801982511681845116808217855250505050505090500191505060006040518083038185875af1925050503d80600081146101d6576040519150601f19603f3d011682016040523d82523d6000602084013e6101db565b606091505b50506002805460ff1916911515919091179081905560ff16610244576040805162461bcd60e51b815260206004820181905260248201527f5061796d656e7420556e7375636365737366756c6c2e2054727920616761696e604482015290519081900360640190fd5b56fe5061796d656e74206163636570746564206f6e6c7920696e2066756c6c206d6f646573a26469706673582212203724601389216dd77521d1000cfa4222252bfe42dbf7d951ca9046afd32bc53b64736f6c63430006010033",
  "source": "pragma solidity ^0.6.1;\r\nimport \"./ItemManager.sol\";\r\ncontract Items {\r\n    uint index;\r\n    uint price;\r\n    bool public success;\r\n    ItemManager public parentContract;\r\n\r\n    constructor(ItemManager _parentContract , uint _index , uint _price) public {\r\n        parentContract = _parentContract;\r\n        index = _index;\r\n        price = _price;\r\n    }\r\n\r\n     function fallback() external payable {\r\n         require(price == msg.value,\"Payment accepted only in full modes\");\r\n        (success,) = address(parentContract).call.value(msg.value)(abi.encodeWithSignature(\"triggerPayment(uint256)\",index));\r\n         require(success , \"Payment Unsuccessfull. Try again\");\r\n    }\r\n}\r\n",
  "sourcePath": "C:\\Users\\Sathya\\chain\\contracts\\Items.sol",
  "compiler": {
    "name": "solc",
    "version": "0.6.1+commit.e6f7d5a4.Emscripten.clang"
  },
  "schemaVersion": "3.0.20",
  "updatedAt": "2022-11-13T07:44:57.403Z",
  "devdoc": {
    "methods": {}
  },
  "userdoc": {
    "methods": {}
  }
}