{
  "contractName": "ItemManager",
  "abi": [
    {
      "anonymous": false,
      "inputs": [
        {
          "indexed": false,
          "internalType": "uint256",
          "name": "itemIndex",
          "type": "uint256"
        },
        {
          "indexed": false,
          "internalType": "uint8",
          "name": "step",
          "type": "uint8"
        },
        {
          "indexed": false,
          "internalType": "address",
          "name": "itemAddress",
          "type": "address"
        }
      ],
      "name": "SupplyChain",
      "type": "event"
    },
    {
      "inputs": [],
      "name": "isOwner",
      "outputs": [
        {
          "internalType": "bool",
          "name": "",
          "type": "bool"
        }
      ],
      "stateMutability": "view",
      "type": "function",
      "constant": true
    },
    {
      "inputs": [
        {
          "internalType": "uint256",
          "name": "",
          "type": "uint256"
        }
      ],
      "name": "mapper",
      "outputs": [
        {
          "internalType": "contract Items",
          "name": "item",
          "type": "address"
        },
        {
          "internalType": "string",
          "name": "identifier",
          "type": "string"
        },
        {
          "internalType": "uint256",
          "name": "price",
          "type": "uint256"
        },
        {
          "internalType": "enum ItemManager.ChainState",
          "name": "state",
          "type": "uint8"
        }
      ],
      "stateMutability": "view",
      "type": "function",
      "constant": true
    },
    {
      "inputs": [
        {
          "internalType": "string",
          "name": "_identifier",
          "type": "string"
        },
        {
          "internalType": "uint256",
          "name": "_price",
          "type": "uint256"
        }
      ],
      "name": "createItem",
      "outputs": [],
      "stateMutability": "nonpayable",
      "type": "function"
    },
    {
      "inputs": [
        {
          "internalType": "uint256",
          "name": "_itemIndex",
          "type": "uint256"
        }
      ],
      "name": "triggerPayment",
      "outputs": [],
      "stateMutability": "payable",
      "type": "function",
      "payable": true
    },
    {
      "inputs": [
        {
          "internalType": "uint256",
          "name": "_itemIndex",
          "type": "uint256"
        }
      ],
      "name": "triggerDelivery",
      "outputs": [],
      "stateMutability": "nonpayable",
      "type": "function"
    },
    {
      "inputs": [],
      "name": "get_Contract_Current_Balance",
      "outputs": [
        {
          "internalType": "uint256",
          "name": "",
          "type": "uint256"
        }
      ],
      "stateMutability": "view",
      "type": "function",
      "constant": true
    }
  ],
  "bytecode": "0x60806040526001600255600080546001600160a01b03191633179055610c108061002a6000396000f3fe6080604052600436106100555760003560e01c8063800fb83f1461005a5780638c551742146100795780638f32d59b1461012e5780639613e14214610157578063bc984ae51461022e578063cd31831e14610255575b600080fd5b6100776004803603602081101561007057600080fd5b503561027f565b005b34801561008557600080fd5b506100776004803603604081101561009c57600080fd5b8101906020810181356401000000008111156100b757600080fd5b8201836020820111156100c957600080fd5b803590602001918460018302840111640100000000831117156100eb57600080fd5b91908080601f01602080910402602001604051908101604052809392919081815260200183838082843760009201919091525092955050913592506103d0915050565b34801561013a57600080fd5b5061014361054f565b604080519115158252519081900360200190f35b34801561016357600080fd5b506101816004803603602081101561017a57600080fd5b5035610561565b60405180856001600160a01b03166001600160a01b03168152602001806020018481526020018360028111156101b357fe5b60ff168152602001828103825285818151815260200191508051906020019080838360005b838110156101f05781810151838201526020016101d8565b50505050905090810190601f16801561021d5780820380516001836020036101000a031916815260200191505b509550505050505060405180910390f35b34801561023a57600080fd5b50610243610624565b60408051918252519081900360200190f35b34801561026157600080fd5b506100776004803603602081101561027857600080fd5b5035610668565b60008181526001602052604090206002015434146102ce5760405162461bcd60e51b8152600401808060200182810382526027815260200180610bb46027913960400191505060405180910390fd5b60008181526001602052604081206003015460ff1660028111156102ee57fe5b14610340576040805162461bcd60e51b815260206004820152601760248201527f7061796d656e74206572726f7220747269676765726564000000000000000000604482015290519081900360640190fd5b6000818152600160208190526040909120600301805460ff1916909117908190557f9132de44adcad73b2cebe9bbd900f27260207b1b1116695886a4f1948c34947390829060ff16600281111561039357fe5b60008481526001602090815260409182902054825194855260ff909316908401526001600160a01b0390911682820152519081900360600190a150565b600030600254836040516103e3906107af565b6001600160a01b03909316835260208301919091526040808301919091525190819003606001906000f08015801561041f573d6000803e3d6000fd5b5060028054600090815260016020818152604080842080546001600160a01b0319166001600160a01b0388161790559354835292909120865193945061046a939101918601906107bc565b50600280546000908152600160205260408082208301859055825482528082206003908101805460ff19169055835480845291909220909101547f9132de44adcad73b2cebe9bbd900f27260207b1b1116695886a4f1948c3494739260ff909116908111156104d557fe5b6040805192835260ff90911660208301526001600160a01b03841682820152519081900360600190a15060028054600101905561051061054f565b61054b5760405162461bcd60e51b8152600401808060200182810382526040815260200180610b746040913960400191505060405180910390fd5b5050565b6000546001600160a01b031633145b90565b600160208181526000928352604092839020805481840180548651600261010097831615979097026000190190911695909504601f81018590048502860185019096528585526001600160a01b039091169491939290919083018282801561060a5780601f106105df5761010080835404028352916020019161060a565b820191906000526020600020905b8154815290600101906020018083116105ed57829003601f168201915b50505050600283015460039093015491929160ff16905084565b4761062d61054f565b61055e5760405162461bcd60e51b8152600401808060200182810382526040815260200180610b746040913960400191505060405180910390fd5b600160008281526001602052604090206003015460ff16600281111561068a57fe5b146106dc576040805162461bcd60e51b815260206004820152601860248201527f64656c6976657279206572726f72207472696767657265640000000000000000604482015290519081900360640190fd5b6000818152600160205260409020600301805460ff19166002908117918290557f9132de44adcad73b2cebe9bbd900f27260207b1b1116695886a4f1948c34947391839160ff9091169081111561072f57fe5b60008481526001602090815260409182902054825194855260ff909316908401526001600160a01b0390911682820152519081900360600190a161077161054f565b6107ac5760405162461bcd60e51b8152600401808060200182810382526040815260200180610b746040913960400191505060405180910390fd5b50565b61031f8061085583390190565b828054600181600116156101000203166002900490600052602060002090601f016020900481019282601f106107fd57805160ff191683800117855561082a565b8280016001018555821561082a579182015b8281111561082a57825182559160200191906001019061080f565b5061083692915061083a565b5090565b61055e91905b80821115610836576000815560010161084056fe608060405234801561001057600080fd5b5060405161031f38038061031f8339818101604052606081101561003357600080fd5b5080516020820151604090920151600280546001600160a01b0390931661010002610100600160a81b03199093169290921790915560009190915560015561029f806100806000396000f3fe6080604052600436106100345760003560e01c80630b93381b14610039578063230b9da314610062578063552079dc14610093575b600080fd5b34801561004557600080fd5b5061004e61009d565b604080519115158252519081900360200190f35b34801561006e57600080fd5b506100776100a6565b604080516001600160a01b039092168252519081900360200190f35b61009b6100ba565b005b60025460ff1681565b60025461010090046001600160a01b031681565b34600154146100fa5760405162461bcd60e51b81526004018080602001828103825260238152602001806102476023913960400191505060405180910390fd5b6002546000546040805160248082019390935281518082039093018352604401815260208201805163800fb83f60e01b6001600160e01b03909116178152905182516101009094046001600160a01b03169334939282918083835b602083106101745780518252601f199092019160209182019101610155565b6001836020036101000a03801982511681845116808217855250505050505090500191505060006040518083038185875af1925050503d80600081146101d6576040519150601f19603f3d011682016040523d82523d6000602084013e6101db565b606091505b50506002805460ff1916911515919091179081905560ff16610244576040805162461bcd60e51b815260206004820181905260248201527f5061796d656e7420556e7375636365737366756c6c2e2054727920616761696e604482015290519081900360640190fd5b56fe5061796d656e74206163636570746564206f6e6c7920696e2066756c6c206d6f646573a26469706673582212203724601389216dd77521d1000cfa4222252bfe42dbf7d951ca9046afd32bc53b64736f6c63430006010033556e617574686f7269736564204163636573732064657465637465642e20436f6e74616374204f776e657220666f72206d6f7265207065726d697373696f6e735061796d656e74206163636570746564206f6e6c7920696e2066756c6c206d6f646573202d2031a26469706673582212206826006aa9082dcd7ccba026b836bc59e16e405e0d827ae0bbb6e0842e4ba92a64736f6c63430006010033",
  "source": "//SPDX-License-Identifier: MIT\r\n//use case\r\n//1. structure of the product\r\n//2. Creation of a new Item by admin\r\n//3. Holds DS of the project in a mapper for implementing other functionalities\r\n//4. Generation of a unique address for a product.\r\n//5. trigger delivery upon successfull payment by admin\r\n//6. Account worth in Weis\r\n\r\n\r\npragma solidity ^0.6.1;\r\nimport './Ownable.sol';\r\nimport './Items.sol';\r\ncontract ItemManager is Ownable{\r\n\r\n    enum ChainState{ created , paid , delivered }\r\n    event SupplyChain(uint itemIndex , uint8 step , address itemAddress);\r\n\r\n    struct ItemDetails{\r\n        Items item;\r\n        string identifier;\r\n        uint price;\r\n        ChainState state;\r\n    }\r\n\r\n    mapping(uint => ItemDetails) public mapper;\r\n    uint itemIndex=1;\r\n\r\n    function createItem(string memory _identifier , uint _price) public OnlyOwner {\r\n        Items _item = new Items(this,itemIndex,_price);\r\n        mapper[itemIndex].item = _item;\r\n        mapper[itemIndex].identifier = _identifier;\r\n        mapper[itemIndex].price = _price;\r\n        mapper[itemIndex].state = ChainState.created;\r\n        emit SupplyChain(itemIndex , uint8(mapper[itemIndex].state) , address(_item));\r\n        itemIndex++;\r\n    }\r\n\r\n    function triggerPayment(uint _itemIndex) public payable {\r\n        require(mapper[_itemIndex].price == msg.value,\"Payment accepted only in full modes - 1\");\r\n        require(mapper[_itemIndex].state == ChainState.created, \"payment error triggered\");\r\n        mapper[_itemIndex].state = ChainState.paid;\r\n        emit SupplyChain(_itemIndex , uint8(mapper[_itemIndex].state) , address(mapper[_itemIndex].item));\r\n    }\r\n\r\n    function triggerDelivery(uint _itemIndex) public OnlyOwner {\r\n        require(mapper[_itemIndex].state == ChainState.paid,\"delivery error triggered\");\r\n        mapper[_itemIndex].state = ChainState.delivered;\r\n        emit SupplyChain(_itemIndex , uint8(mapper[_itemIndex].state) , address(mapper[_itemIndex].item));\r\n    }\r\n\r\n    function get_Contract_Current_Balance() public OnlyOwner view returns(uint){\r\n        return address(this).balance;\r\n    }\r\n\r\n\r\n}",
  "sourcePath": "C:\\Users\\Sathya\\chain\\contracts\\ItemManager.sol",
  "compiler": {
    "name": "solc",
    "version": "0.6.1+commit.e6f7d5a4.Emscripten.clang"
  },
  "schemaVersion": "3.0.20",
  "updatedAt": "2022-11-13T07:44:58.175Z",
  "networkType": "ethereum",
  "devdoc": {
    "methods": {}
  },
  "userdoc": {
    "methods": {}
  }
}