{
  "contractName": "Ownable",
  "abi": [
    {
      "inputs": [],
      "stateMutability": "nonpayable",
      "type": "constructor"
    },
    {
      "inputs": [],
      "name": "isOwner",
      "outputs": [
        {
          "internalType": "bool",
          "name": "",
          "type": "bool"
        }
      ],
      "stateMutability": "view",
      "type": "function"
    }
  ],
  "bytecode": "0x6080604052348015600f57600080fd5b50600080546001600160a01b03191633179055608e806100306000396000f3fe6080604052348015600f57600080fd5b506004361060285760003560e01c80638f32d59b14602d575b600080fd5b60336047565b604080519115158252519081900360200190f35b6000546001600160a01b031633149056fea2646970667358221220b4777259e5680192a0e2bc66e34a11377a70eabc27b175e1ea8339a6e693a9b864736f6c63430006010033",
  "source": "//use case\r\n//1. Assign owner.\r\n//2. Permission setup\r\n\r\npragma solidity ^0.6.0;\r\ncontract Ownable {\r\n\r\n    address _Owner;\r\n\r\n    constructor() public {\r\n        _Owner = msg.sender;\r\n    }\r\n\r\n    modifier OnlyOwner(){\r\n        _;\r\n        require( isOwner(), \"Unauthorised Access detected. Contact Owner for more permissions\");\r\n    }\r\n\r\n    function isOwner() public view returns(bool){\r\n        return _Owner == msg.sender;\r\n    }\r\n\r\n}",
  "sourcePath": "C:\\Users\\Sathya\\chain\\contracts\\Ownable.sol",
  "compiler": {
    "name": "solc",
    "version": "0.6.1+commit.e6f7d5a4.Emscripten.clang"
  },
  "schemaVersion": "3.0.20",
  "updatedAt": "2022-11-13T07:44:57.407Z",
  "devdoc": {
    "methods": {}
  },
  "userdoc": {
    "methods": {}
  }
}